:020000041A00E0
:1000000000800010B112001AF501001AFB01001A5D
:100010000102001A0702001A0D02001A4A63FF5378
:10002000000000000000000000000000E145001A90
:100030001902001A000000004148001AA948001ADD
:10004000FD49001A2B02001A2B02001A00000000C2
:100050002B02001A2B02001A2B02001A2B02001A84
:10006000F970001A2B02001A2B02001A2B02001A38
:100070003168001A8968001AE168001A3969001AA3
:100080002B02001A2B02001A2B02001A2B02001A54
:100090002B02001A2B02001A2B02001A2B02001A44
:1000A0003102001A2B02001ADD70001AEB70001AE0
:1000B0002B02001A2B02001A2B02001A2B02001A24
:1000C0002B02001A2B02001A2B02001A2B02001A14
:1000D0002B02001A2B02001A2B02001A2B02001A04
:1000E0002B02001A2B02001A2B02001A2B02001AF4
:1000F000000000002B02001A2B02001A2B02001A2B
:10010000000000002B02001A2B02001A2B02001A1A
:100110002B02001AA0D4001A000000103C0A0000B4
:10012000A0D4001A0000081000000000A0D4001A9B
:100130000000002000000000A0D4001A0080002071
:1001400000000000A0D4001A00C000200000000041
:100150003C0A0010942B0000000008100000000072
:1001600000000020000000000080002000000000CF
:1001700000C000200000000080B489B000AFF8602B
:10018000B9607A60BB68FB61FB68BB6100237B617F
:100190000AE0BA69131DBB61FB69191DF961126898
:1001A0001A607B6904337B617A697B689A42F0D379
:1001B00000BF2437BD465DF8047B704780B485B02E
:1001C00000AF786039607B68FB600023BB6007E0AC
:1001D000FB681A1DFA6000221A60BB680433BB601A
:1001E000BA683B689A42F3D300BF1437BD465DF846
:1001F000047B704780B400AFFEE780B400AFFEE739
:1002000080B400AFFEE780B400AFFEE780B400AF7B
:10021000FEE780B400AFFEE780B400AFFEE780B435
:1002200000AFFEE780B400AFFEE780B400AFFEE7AA
:1002300080B500AF002006F0EDFC00BF80BDFFFFE1
:10024000FFFFFFFFFFFFFFFFFFFFFFFFFFFFFFFFBE
:10025000FFFFFFFFFFFFFFFFFFFFFFFFFFFFFFFFAE
:10026000FFFFFFFFFFFFFFFFFFFFFFFFFFFFFFFF9E
:10027000FFFFFFFFFFFFFFFFFFFFFFFFFFFFFFFF8E
:10028000FFFFFFFFFFFFFFFFFFFFFFFFFFFFFFFF7E
:10029000FFFFFFFFFFFFFFFFFFFFFFFFFFFFFFFF6E
:1002A000FFFFFFFFFFFFFFFFFFFFFFFFFFFFFFFF5E
:1002B000FFFFFFFFFFFFFFFFFFFFFFFFFFFFFFFF4E
:1002C000FFFFFFFFFFFFFFFFFFFFFFFFFFFFFFFF3E
:1002D000FFFFFFFFFFFFFFFFFFFFFFFFFFFFFFFF2E
:1002E000FFFFFFFFFFFFFFFFFFFFFFFFFFFFFFFF1E
:1002F000FFFFFFFFFFFFFFFFFFFFFFFFFFFFFFFF0E
:1003000080B584B000AF78600223FB817B681B68F6
:10031000184608F0D5FC0346BB813FE07B681A68AD
:10032000FB8913441B78402B13D97B681A68FB891F
:1003300013441B785A2B0CD87B681A68FB8913442A
:100340001A787B681968FB890B442032D2B21A7084
:1003500021E07B681A68FB8913441B78602B06D95F
:100360007B681A68FB8913441B787A2B13D97B6846
:100370001A68FB8913441B78202B0CD07B681B6800
:100380000A491A460B4603CB1060516019889B78C6
:100390001181937207E0FB890133FB81FA89BB89E4
:1003A000033B9A42BADB1037BD4680BDF4CC001A3D
:1003B00080B584B000AF78600223FB817B681B6846
:1003C000184608F07DFC0346BB813FE07B681A6855
:1003D000FB8913441B78602B13D97B681A68FB894F
:1003E00013441B787A2B0CD87B681A68FB8913445A
:1003F0001A787B681968FB890B44203AD2B21A70CC
:1004000021E07B681A68FB8913441B78402B06D9CE
:100410007B681A68FB8913441B785A2B13D97B68B5
:100420001A68FB8913441B78202B0CD07B681B684F
:100430000A491A460B4603CB1060516019889B7815
:100440001181937207E0FB890133FB81FA89BB8933
:10045000033B9A42BADB1037BD4680BDF4CC001A8C
:1004600080B58CB000AF7860002387F82830002377
:100470003B76284808F0D6FB07F12C03194626489E
:1004800000F089F8254808F0CDFBFB6A01331B78A2
:100490004D2B17D06D2B29D13B7E002B09D107F1B5
:1004A0000C031F4A1F49184600F004FC1E4808F0C0
:1004B000B9FB386907F12C0100234FF0FF3203F03C
:1004C000EDF81FE097F82830002B06D107F11C0348
:1004D000134A1649184600F0EDFB386A07F12C0163
:1004E00000234FF0FF3203F0D9F80BE0FB6A10490C
:1004F0001A460B4603CB1060516019889B78118116
:10050000937200BF07F12C0319460A4800F06EF8F9
:10051000B2E700BF00CD001A5835001018CD001A00
:10052000390D001A0103001A28CD001AB103001A70
:1005300034CD001A6035001080B584B000AF78600B
:1005400000220421142003F017F802467B681A6089
:100550007B681B68002B09D14FF0A00383F311883F
:10056000BFF36F8FBFF34F8FFB60FEE700BF103705
:10057000BD4680BD80B582B000AF786039607B68D1
:100580001B684FF0FF323968184603F083FC00BF48
:100590000837BD4680BD80B582B000AF7860396055
:1005A0007B681B684FF0FF323968184603F08EFAFB
:1005B00000BF0837BD4680BD80B584B000AF78600D
:1005C00039600023BB607B681B6807F1080239684B
:1005D000184603F03DFDF860FB68002B14BF0123B3
:1005E0000023DBB218461037BD4680BD80B582B00F
:1005F00000AF786039607B68186800234FF0FF32E5
:10060000396803F04BF800BF0837BD4680BD80B5A0
:1006100084B000AF786039600023FB607B681868A5
:1006200007F10C020023396803F032F900BF1846C5
:100630001037BD4680BDFFFF80B500AF06F06CFDF2
:100640001049114800F0A6FB1048FFF775FF10484D
:10065000FFF772FF0F4B4FF4E13203210E4800F019
:10066000EBFB0E4800F0F6F80D4808F0DBFA0D4AF7
:1006700000210D4800F01EFB01F0C0FE00231846CB
:1006800080BD00BF08350010F4340010583500104C
:1006900060350010090B001A1C3500105C35001085
:1006A00040CD001A6104001A0C35001080B487B0E8
:1006B00000AFF860B9607A607B80FB68BA681A6046
:1006C000FB6804229A8101237B8208E0FB689B89F6
:1006D00004339AB2FB689A817B8A01337B82FB6880
:1006E0009B897A889A42F1D8FB689B897B807B88BA
:1006F0007A68D31A7B60FB680122DA81FB681B6889
:100700007B6112E07B8A9B007A691A447B691A60DC
:100710007B691B687B617B887A68D31A7B60FB6886
:10072000DB8901339AB2FB68DA817B887A689A4266
:10073000E8D27B6900221A60FB68DA89FB681A82BA
:10074000FB68DA89FB685A82FB68BA685A60FB6802
:100750007A699A6000BF1C37BD465DF8047B70471C
:1007600080B487B000AF78603960EFF311824FF04A
:10077000A00383F31188BFF36F8FBFF34F8FFA602D
:10078000BB60FB687B617B681A683B681A607B68AA
:100790003A681A607B681B8A9BB201339AB27B6805
:1007A0001A827B693B613B6983F3118800BF1C3768
:1007B000BD465DF8047B704780B489B000AF7860B7
:1007C0000B467B80EFF311824FF0A00383F3118877
:1007D000BFF36F8FBFF34F8F3A61FB603B69BB6123
:1007E0007B681B8A9BB27A889A4225D27B681B68F9
:1007F000FB61FB691B687B617B681B8A9BB2013BC9
:100800009AB27B681A827B681B8A9BB2002B03D149
:100810007B6800225A820BE07B685A8A7B681B8ABD
:100820009BB29A4204D97B681B8A9AB27B685A822F
:100830007B687A691A6001E00023FB61BB69BB60D9
:10084000BB6883F31188FB6918462437BD465DF801
:10085000047B704780B588B002AF78600322002126
:10086000012002F089FE02467B681A607B681B68E3
:10087000002B09D14FF0A00383F31188BFF36F8FD2
:10088000BFF34F8F3B61FEE70023019301230093E9
:100890007B685A221649174801F0E6FB78617B69AC
:1008A000012B09D04FF0A00383F31188BFF36F8FA2
:1008B000BFF34F8FFB60FEE70023019301230093FA
:1008C0007B685A220C490D4801F0CEFB78617B69A8
:1008D000012B09D04FF0A00383F31188BFF36F8F72
:1008E000BFF34F8FBB60FEE700BF1837BD4680BD2A
:1008F0005CCD001A4D0A001A74CD001A0109001AC5
:1009000080B588B000AF78607B687B6107F10C032D
:1009100019464548FFF73FFEFB681946434808F073
:100920001FF90123BB6104E0BB69FB61BB690133B3
:10093000BB61FA68BB6913441B78292BF4D1FA68B0
:10094000FB690233134400221A700023FB74FA6817
:10095000FB69013B13441B78392B07D8FA68FB6904
:10096000013B13441B78303BDBB206E0FA68FB69BD
:10097000013B13441B78373BDBB2FB74FB7C1B0150
:10098000FB74FA68FB6913441B78392B06D8FA68A4
:10099000FB6913441B78303BDBB205E0FA68FB6966
:1009A00013441B78373BDBB2FA7C1344FB74FB7CAB
:1009B00019461F4808F0D4F8FB68591CFB69023B34
:1009C0001A46002000F038F90346BB74BB7C194678
:1009D000184808F0C5F8FB68591CFB69023B1A4629
:1009E000002000F029F903461A46FB7C93420ED101
:1009F000114808F017F9FB681946104808F0B0F8DC
:100A000007F10C0319460E48FFF7F0FD7EE70D488D
:100A100008F008F9FB6819460B4808F0A1F8FB68D4
:100A200000221A7072E700BF503500108CCD001AFA
:100A3000C0CD001AD0CD001ADCCD001AE8CD001AC6
:100A400058350010F8CD001A04CE001A80B588B0D1
:100A500000AF78607B687B6107F10C03194626487C
:100A6000FFF799FD254808F0DDF80123BB6104E09C
:100A7000BB69FB61BB690133BB61FA68BB691344A5
:100A80001B78292BF4D1FB68591CFB69023B1A46E1
:100A9000002000F0D1F80346FB74FB7C03F00F0349
:100AA000BB74BB7C092B03D8BB7C3033DBB202E0C8
:100AB000BB7C3733DBB2F968FA690A441370FB7CFC
:100AC0001B09BB74BB7C092B03D8BB7C3033DBB266
:100AD00002E0BB7C3733DBB2F968FA69013A0A44B9
:100AE0001370074808F09EF807F10C0319460548F3
:100AF000FFF77CFDB0E700BF6035001018CE001A8C
:100B00002CCE001A5435001080B586B000AF0346D5
:100B1000B9607A60FB730023FB75BB681B68C82B48
:100B200002D1BB6800221A60FB7B282B02D0292B44
:100B300007D012E0FB7B7A68B968184600F01AF813
:100B400013E0FB7B7A68B968184600F052F8034658
:100B5000002B09D00123FB7506E0FB7B7A68B9689E
:100B6000184600F026F800E000BFFB7D1846183755
:100B7000BD4680BD80B485B000AF0346B9607A60E1
:100B8000FB73BB681B68002B02D0BB6800221A6095
:100B9000BB681B687A681344FA7B1A70BB681B68D1
:100BA0005A1CBB681A6000BF1437BD465DF8047B51
:100BB000704780B485B000AF0346B9607A60FB73BC
:100BC000BB681B68002B0BD0BB681B687A6813449A
:100BD000FA7B1A70BB681B685A1CBB681A6002E07B
:100BE000BB6800221A6000BF1437BD465DF8047B65
:100BF000704780B487B000AF0346B9607A60FB737A
:100C0000BB681B68002B0DD0BB681B687A68134457
:100C1000FA7B1A70BB681B685A1CBB681A600123F8
:100C2000FB7501E00023FB75FB7D18461C37BD46B4
:100C30005DF8047B7047FFFF80B487B000AF0346C8
:100C4000B9607A60FB73BB683B6100237B6123E082
:100C50007B693A6913441A78FB7B5340FB73FB7B37
:100C60001B015AB2FB7B1B09DBB21946104B5B5CC4
:100C70005BB253405BB2FB73FB7B1B015AB2FB7B45
:100C80001B09DBB219460A4B5B5C5BB253405BB29B
:100C9000FB737B6901337B617A697B689A42D7DB9E
:100CA000FB7B18461C37BD465DF8047B704700BFD0
:100CB0000000001080B588B002AFF860B9607A60BB
:100CC00000237B61FB687A681A60002204210A20F5
:100CD00002F052FC0246FB685A60FB685B68002B1E
:100CE0000ED0FB68BA689A60FB681868002301930D
:100CF00002230093FB685A220E4901F0B5F978618E
:100D00007B69012B04D1FB6801221A7301230CE0DB
:100D10007B69012B09D04FF0A00383F31188BFF347
:100D20006F8FBFF34F8F3B61FEE718461837BD4604
:100D300080BD00BF3CCE001A80B586B000AF7860A1
:100D40007B687B617B695B68184603F0FEF90346AC
:100D5000002B13D07B695B6807F10C014FF0FF3269
:100D6000184602F0B3FE38613B69002BEAD07B697C
:100D70009B6807F10C0210469847E3E77B69002265
:100D80001A737B695B68184603F0FCF9002001F0D8
:100D9000A7FAD7E780B584B000AF7860396040F239
:100DA000DA7000F0B3FB02463B681A603B681B68D0
:100DB000002B09D14FF0A00383F31188BFF36F8F8D
:100DC000BFF34F8FFB60FEE778683B681968C92363
:100DD00040F2DA72FFF76AFC00BF1037BD4680BDF3
:100DE00080B584B000AF786039600023FB737B6806
:100DF00005211846FFF7E0FC02463B681A603B6895
:100E00001B68002B02D00123FB7301E00023FB735E
:100E1000FB7B18461037BD4680BD80B582B000AF61
:100E2000786039607B6839681846FFF799FC00BF25
:100E30000837BD4680BDFFFF80B588B002AFF860BF
:100E40007A603B600B46FB723C220021F86807F099
:100E50002BFEF86800F092F9FB683A68DA60FB7ADA
:100E60007A681946F86800F0C7F900230193012356
:100E70000093FB685A221B491B4801F0F5F8786182
:100E80007B69012B09D04FF0A00383F31188BFF3D6
:100E90006F8FBFF34F8F3B61FEE7FB68343318461B
:100EA000FFF74AFBFB6838331846FFF745FB0F4B4B
:100EB0000093FB6801223C210D4800F049FD0246E9
:100EC000FB68DA620B4B0093FB6800223C210A4866
:100ED00000F03EFD0246FB681A6300BF1837BD46AE
:100EE00080BD00BF48CE001AFD0E001A6712001A1E
:100EF00064CE001A4912001A70CE001A90B587B05D
:100F000002AF78607B68FB60FB68DC6A01F084FB01
:100F100002460023009300230121204600F06AFDD1
:100F2000FB6800221A76FB68012283F82020FB6808
:100F3000383307F1080211461846FFF71BFBF86823
:100F400000F00AF800BFFB6893F8203083F001033B
:100F5000DBB2002BF7D1EAE780B582B000AF786052
:100F60007B6818787B680A4A012105F025FF7B68B9
:100F70001B78184605F0D4FF7B689B6A4FF0FF3161
:100F8000184602F07FFE00BF0837BD4680BD00BF97
:100F9000950F001A90B587B002AF78600023BB6050
:100FA0007B68FB60FB681B7E83F00103DBB2002BD8
:100FB0000FD0FB6803F13802FB6814331946104662
:100FC000FFF7FAFA03461A46FB681A76FB68002216
:100FD000DA61FB681B7E002B4DD0FB68DB69002BC0
:100FE0000ED1FB68DC6A01F027FB014607F108021D
:100FF0000023009313460A460621204600F0FAFC1F
:10100000FB685A69FB68DB6913441B78002B10D01E
:10101000FB681878FB685A69FB68DB6913441B7826
:10102000194605F0ADFFFB68DB695A1CFB68DA6105
:1010300021E0FB685B6919461648FFF7EEFEFB6886
:101040001878FB68144A002105F0B6FEFB68002200
:101050001A76FB68002283F82020FB681B780121A8
:10106000184605F037FFFB689B6A07F10802114636
:10107000184602F0A1FCBB68002B07D0074B4FF0CD
:1010800080521A60BFF34F8FBFF36F8F00BF1437CA
:10109000BD4690BDF4340010A110001A04ED00E02C
:1010A00090B589B002AF78600023BB607B687B613C
:1010B0007B691B78184605F04BFF0346FB747B6980
:1010C0005B6A07F108020021184602F0C1FFF860D0
:1010D000FB68002B3ED07B69DB687A6902F1100166
:1010E0007A699268F87C98470346002B1BD07B698D
:1010F00003F134027B69083319461046FFF787FA7B
:101100007B69083319461B48FFF76AFE034683F0E4
:101110000103DBB2002B15D07B691B780021184638
:1011200005F0D8FE0EE07B691C6B01F085FA0146E4
:1011300007F108020023009313460A4606212046C1
:1011400000F058FC7B695B6A07F1080211461846FB
:1011500002F032FCBB68002B07D0074B4FF08052E7
:101160001A60BFF34F8FBFF36F8F00BF1C37BD46B0
:1011700090BD00BFF434001004ED00E080B584B0F1
:1011800000AF78607B6800221A617B6808331946DB
:101190001848FFF725FE012002F068FA02467B6836
:1011A0005A627B685B6A002B09D14FF0A00383F37E
:1011B0001188BFF36F8FBFF34F8FFB60FEE70322F1
:1011C0000021012002F0D8F902467B689A627B6810
:1011D0009B6A002B09D14FF0A00383F31188BFF362
:1011E0006F8FBFF34F8FBB60FEE700BF1037BD4668
:1011F00080BD00BFF434001080B584B000AFF8604B
:101200000B467A60FB72FB68FA7A1A70FB687A68A0
:101210005A60FB681A78FB685B681946104605F04F
:10122000CBFEFB681878FB68064A002105F0C4FD78
:10123000FB681B780121184605F084FD00BF1037BC
:10124000BD4680BDA110001A80B584B000AF7860A3
:10125000786800F091FEF860FB6800221A6100BF18
:101260001037BD4680BD80B584B000AF7860786827
:1012700000F082FEF860FB68012283F8202000BFA6
:101280001037BD4680BD80B400AF00BFBD465DF8DD
:10129000047B704780B400AF00BFBD465DF8047B9F
:1012A000704780B400AF00BFBD465DF8047B704757
:1012B00080B588B000AF72B6294B7B617B69294A43
:1012C0001A607B690433284A1A60284B3B6100236B
:1012D000FB6109E0FB699B003A6913444FF0FF3260
:1012E0001A60FB690133FB61FB69072BF2D962B617
:1012F0001F4BBB6113E0BB691A1DBA611B68FB6021
:10130000BB691A1DBA611B68BB60BB691A1DBA6153
:101310001B687B607A68B968F868FEF72DFFBB69C7
:10132000144A9342E7D30DE0BB691A1DBA611B68EA
:10133000BB60BB691A1DBA611B687B607968B868BD
:10134000FEF73CFFBB690C4A9342EDD305F04EF823
:1013500007F02CF8FFF797FFFFF76EF930BFFDE7B6
:10136000003105400010DF10FFF7DF0180E200E0F0
:101370001401001A5001001A7801001A80B483B0D9
:1013800000AF786039607B6809221A604FF0FF3344
:1013900018460C37BD465DF8047B704780B485B0B5
:1013A00000AFF860B9607A60FB6858221A604FF0AD
:1013B000FF3318461437BD465DF8047B704780B490
:1013C00083B000AF786039603B68022B01D80123FD
:1013D00004E07B6809221A604FF0FF3318460C378F
:1013E000BD465DF8047B704780B485B000AFF860FF
:1013F000B9607A603B60FB6858221A604FF0FF3397
:1014000018461437BD465DF8047B704780B586B03A
:1014100000AFF860B9607A603B6000237B61BB6815
:10142000022B23D818E003F0BEFD38613B69B3F10D
:10143000FF3F11D07B695A1C7A617A6813443A697C
:10144000D2B21A703B690D2B02D03B690A2B03D133
:1014500003F0A9FD7B690EE07A693B689A42E2D30A
:10146000FB6813221A604FF0FF3304E0FB6813227D
:101470001A604FF0FF3318461837BD4680BD80B55F
:1014800086B000AFF860B9607A603B60BB68022B41
:1014900012D800237B6109E07A687B6913441B78CA
:1014A000184603F073FD7B6901337B617A693B6801
:1014B0009A42F1D33B6804E0FB6813221A604FF0B4
:1014C000FF3318461837BD4680BDFFFF80B485B096
:1014D00000AF786039600B4B1B68002B02D1094BC1
:1014E000094A1A60074B1B68FB60064B1A683B6889
:1014F0001344044A1360FB6818461437BD465DF870
:10150000047B70473C0A0010D035001080B58AB0CB
:1015100000AF78600023FB6100F0D4FF594B1B68DB
:10152000002B01D100F010F9574B1A687B6813406B
:10153000002B40F08C807B68002B1CD008227B683D
:1015400013447B607B6803F00703002B13D07B6898
:1015500023F0070308337B607B6803F00703002B4D
:1015600009D04FF0A00383F31188BFF36F8FBFF34F
:101570004F8F7B61FEE77B68002B68D0434B1B6875
:101580007A689A4263D8424B3B62414B1B687B624C
:1015900004E07B6A3B627B6A1B687B627B6A5B68F8
:1015A0007A689A4203D97B6A1B68002BF1D1354BCC
:1015B0001B687A6A9A424AD03B6A1B680822134425
:1015C000FB617B6A1A683B6A1A607B6A5A687B68AF
:1015D000D21A08235B009A421ED97A6A7B681344A8
:1015E000BB61BB6903F00703002B09D04FF0A003D8
:1015F00083F31188BFF36F8FBFF34F8F3B61FEE71B
:101600007B6A5A687B68D21ABB695A607B6A7A68BF
:101610005A60B86900F0FAF81C4B1A687B6A5B687C
:10162000D31A1A4A1360194B1A681A4B1B689A424C
:1016300003D2164B1B68174A13607B6A5A68124B19
:101640001B681A437B6A5A607B6A00221A6000F0AA
:1016500047FFFB69002B01D101F0A6FDFB6903F0F8
:101660000703002B09D04FF0A00383F31188BFF3C9
:101670006F8FBFF34F8FFB60FEE7FB69184628377B
:10168000BD4680BD482A0010542A00104C2A001084
:10169000402A0010502A001080B586B000AF786054
:1016A0007B687B617B68002B46D008235B427A69AC
:1016B00013447B617B693B613B695A68204B1B6823
:1016C0001340002B09D14FF0A00383F31188BFF31F
:1016D0006F8FBFF34F8FFB60FEE73B691B68002BEA
:1016E00009D04FF0A00383F31188BFF36F8FBFF3CE
:1016F0004F8FBB60FEE73B695A68114B1B68134074
:10170000002B19D03B691B68002B15D13B695A6827
:101710000B4B1B68DB431A403B695A6000F0D2FE5A
:101720003B695A68074B1B681344064A13603869C3
:1017300000F06CF800F0D4FE00BF1837BD4680BD45
:10174000542A00104C2A001080B485B000AF4FF42A
:101750000053BB60274BFB60FB6803F00703002BC3
:101760000CD0FB680733FB60FB6823F00703FB60CA
:10177000BA68FB68D31A1F4A1344BB60FB687B60DE
:101780001D4A7B6813601C4B00225A607B68BA6854
:101790001344FB600822FB689B1AFB60FB6823F084
:1017A0000703FB60FB68154A1360144B1B6800229B
:1017B0005A60124B1B6800221A607B683B603B68D2
:1017C000FA68D21A3B685A600C4B1A683B681A6078
:1017D0003B685B680A4A13603B685B68094A1360B0
:1017E000094B4FF000421A6000BF1437BD465DF848
:1017F000047B7047400A0010402A0010482A00105D
:10180000502A00104C2A0010542A001080B485B0D1
:1018100000AF7860284BFB6002E0FB681B68FB6050
:10182000FB681B687A689A42F7D8FB68BB60FB6864
:101830005B68BA6813447A689A4208D1FB685A68B0
:101840007B685B681A44FB685A60FB687B607B6856
:10185000BB607B685B68BA681A44FB681B689A4285
:1018600018D1FB681A68154B1B689A420DD07B682B
:101870005A68FB681B685B681A447B685A60FB689F
:101880001B681A687B681A6008E00C4B1A687B6852
:101890001A6003E0FB681A687B681A60FA687B6864
:1018A0009A4202D0FB687A681A6000BF1437BD46BE
:1018B0005DF8047B704700BF402A0010482A0010E2
:1018C00080B58AB004AF00237B6100F015FB1C4B90
:1018D0001B68002B21D00023FB600023BB603A1D56
:1018E00007F1080107F10C03184601F09DFC796827
:1018F000BB68FA68029201930423009300230A460E
:101900001049114800F057FB0246104B1A600F4B6C
:101910001B68002B01D001237B617B69002B09D15F
:101920004FF0A00383F31188BFF36F8FBFF34F8F86
:101930003B61FEE77B6918461837BD4680BD00BF96
:10194000882A00107CCE001A0D1B001A8C2A001069
:1019500080B588B002AFF860B9607A603B60302033
:10196000FFF7D4FD78617B69002B0DD07B69019373
:101970003B6A00933B687A68B968F86800F009F838
:101980007B69002283F82C207B6918461837BD46F6
:1019900080BD80B586B000AFF860B9607A603B600A
:1019A000BB68002B09D14FF0A00383F31188BFF36C
:1019B0006F8FBFF34F8F7B61FEE77B6A002B15D0E3
:1019C00000F09AFA7B6AFA681A607B6ABA689A61D0
:1019D0007B6A7A68DA617B6A3A681A627B6A3A6A79
:1019E0005A627B6A0433184601F058FC00BF18376E
:1019F000BD4680BD80B58AB000AFF860B9607A603E
:101A00003B6000237B62FB68002B09D14FF0A003F1
:101A100083F31188BFF36F8FBFF34F8F3B62FEE7F5
:101A2000194B1B68002B2AD0BB683B617B687B612C
:101A3000FB68BB61BB68052B18DC01F055F9034658
:101A4000022B09D1104B186807F1100100233A6BE3
:101A500001F024FE786212E00B4B186807F11001C8
:101A60000023002201F01AFE786208E0064B186895
:101A700007F1100100233A6801F00AFF78627B6ADF
:101A800018462837BD4680BD882A001080B588B02A
:101A900002AF786039601C4B1B68DB68DB687B61D8
:101AA0007B690433184601F063FC7B69DB69012B19
:101AB00021D17B699A697B68D1187B683A6878691B
:101AC00000F0C8F80346002B15D000230093002334
:101AD0007A6800217869FFF78DFF38613B69002B38
:101AE00009D14FF0A00383F31188BFF36F8FBFF3C9
:101AF0004F8FFB60FEE77B695B6A7869984700BFA0
:101B00001837BD4680BD00BF802A001080B584B064
:101B100000AF786007F10803184600F057F8F86046
:101B2000BB681946F86800F003F800F0D5F8F1E753
:101B300080B584B000AF7860396000F0C3FC07F175
:101B40000803184600F066F8F860BB68002B30D137
:101B50003B68002B0AD17A68FB689A4206D800F0ED
:101B6000BFFCF9687868FFF791FF24E03B68002B21
:101B700008D0134B1B681B68002B0CBF01230023EC
:101B8000DBB23B600F4B18687A68FB68D31A3A687F
:101B9000194602F093FC00F0A3FC0346002B0AD187
:101BA000094B4FF080521A60BFF34F8FBFF36F8F16
:101BB00001E000F095FC00BF1037BD4680BD00BFBE
:101BC000842A0010882A001004ED00E080B485B05B
:101BD00000AF78600E4B1B681B68002B0CBF012305
:101BE0000023DBB21A467B681A607B681B68002BF7
:101BF00005D1074B1B68DB681B68FB6001E0002315
:101C0000FB60FB6818461437BD465DF8047B7047DF
:101C1000802A001080B584B000AF786000F0FCFC32
:101C2000F8600B4B1B68FA689A4205D200F004F981
:101C30007B6801221A6002E07B6800221A60044A75
:101C4000FB681360FB6818461037BD4680BD00BFB7
:101C5000902A001080B586B000AFF860B9607A6055
:101C60003B6000237B61FB68BA685A60FB68FA68D6
:101C70001A61BA687B689A4212D87A683B68D21AAD
:101C8000FB689B699A4202D301237B611BE0104BE6
:101C90001A68FB6804331946104601F030FB12E065
:101CA0007A683B689A4206D2BA683B689A4202D385
:101CB00001237B6107E0074B1A68FB680433194670
:101CC000104601F01CFB7B6918461837BD4680BDE5
:101CD000842A0010802A001080B58EB002AF99E0EF
:101CE0007B68002B17DA3B1D0433FB62FB6A002B79
:101CF00009D14FF0A00383F31188BFF36F8FBFF3B7
:101D00004F8FFB61FEE7FB6A1B68FA6A5068FA6A4C
:101D10009268114698477B68002B7ADBFB68BB62B0
:101D2000BB6A5B69002B04D0BB6A0433184601F020
:101D30001FFB3B461846FFF76DFF78627B68092B57
:101D400068D801A252F823F0711D001A711D001A03
:101D5000711D001A151E001ACB1D001A011E001A53
:101D6000711D001A711D001A151E001ACB1D001AD4
:101D7000BA68BB6A9B69D118BB687A6AB86AFFF710
:101D800069FF0346002B45D0BB6A5B6AB86A984777
:101D9000BB6ADB69012B3DD1BA68BB6A9B691A44F7
:101DA0000023009300230021B86AFFF723FE386266
:101DB0003B6A002B2ED14FF0A00383F31188BFF3B1
:101DC0006F8FBFF34F8FBB61FEE7BA68BB6A9A6142
:101DD000BB6A9B69002B09D14FF0A00383F31188E4
:101DE000BFF36F8FBFF34F8F7B61FEE7BB6A9A69CA
:101DF0007B6AD1187B6A7A6AB86AFFF72BFF09E021
:101E0000BB6A93F82C30002B04D1B86AFFF744FC6E
:101E100000E000BF074B1B68391D0022184601F087
:101E200055FE0346002B7FF45BAF00BF3037BD4645
:101E300080BD00BF882A001080B588B002AF44E0A2
:101E40002B4B1B68DB681B687B61294B1B68DB68BD
:101E5000DB683B613B690433184601F089FA3B6952
:101E60005B6A386998473B69DB69012B2DD13B6977
:101E70009B697A691344FB60FA687B699A420ED9C0
:101E80003B69FA685A603B693A691A61184B1A68EB
:101E90003B6904331946104601F031FA15E000237E
:101EA000009300237A6900213869FFF7A3FDB86029
:101EB000BB68002B09D14FF0A00383F31188BFF357
:101EC0006F8FBFF34F8F3B60FEE7094B1B681B68AA
:101ED000002BB5D1064B1B687B60064B1B68044A80
:101EE0001360044A7B68136000BF1837BD4680BD8D
:101EF000802A0010842A001080B582B002AF02F060
:101F000045FC154B1B68002B20D1144801F0A6F9A5
:101F1000134801F0A3F9134B104A1A60124B104AF0
:101F20001A6000230093114B114A10210A2001F07E
:101F3000B1FA0246084B1A60074B1B68002B05D00C
:101F4000054B1B680B49184602F066FA02F04CFC80
:101F500000BFBD4680BD00BF882A0010582A00106F
:101F60006C2A0010802A0010842A0010342B0010E4
:101F7000942A001084CE001A80B586B000AF786035
:101F80007B687B617B68002B09D14FF0A00383F352
:101F90001188BFF36F8FBFF34F8FFB60FEE702F036
:101FA000F5FB7B691B6A3B6102F01EFC3B6918462E
:101FB0001837BD4680BD80B58EB004AFF860B960FB
:101FC0007A603B607B6B002B09D14FF0A00383F359
:101FD0001188BFF36F8FBFF34F8F3B62FEE7BB6B80
:101FE000002B09D14FF0A00383F31188BFF36F8F4B
:101FF000BFF34F8FFB61FEE760233B613B69602BC2
:1020000009D04FF0A00383F31188BFF36F8FBFF3A4
:102010004F8FBB61FEE7BB6B002B1ED07B6B002B91
:102020001BD0BB6B7B627B6A7A6B1A637B6A022272
:1020300083F85D20002303937B6A029307F1140366
:1020400001933B6B00933B687A68B968F86800F0CD
:1020500050F8786A00F0D6F801E000237B617B69D4
:1020600018462837BD4680BD80B58CB004AFF860F7
:10207000B9603B601346FB80FB889B001846FFF766
:1020800045FA78617B69002B0ED06020FFF73EFA9D
:10209000F861FB69002B03D0FB697A691A6305E0DC
:1020A0007869FFF7F9FA01E00023FB61FB69002B77
:1020B00017D0FB69002283F85D20FA880023039380
:1020C000FB690293FB6A0193BB6A00933B68B968A2
:1020D000F86800F00EF8F86900F094F80123BB618D
:1020E00002E04FF0FF33BB61BB6918462037BD46A5
:1020F00080BD80B588B000AFF860B9607A603B60A1
:102100003B6B186B7B689B001A46A52106F0CCFC44
:102110003B6B1A6B7B6803F18043013B9B001344CC
:10212000BB61BB6923F00703BB61BB6903F0070315
:10213000002B09D04FF0A00383F31188BFF36F8FFA
:10214000BFF34F8F7B61FEE73B6BBA695A64002394
:10215000FB6112E0BA68FB69134419783A6BFB69BA
:10216000134434330A461A70BA68FB6913441B7867
:10217000002B06D0FB690133FB61FB690F2BE9D90A
:1021800000E000BF3B6B002283F84320BB6A062BB4
:1021900001D90623BB623B6BBA6ADA623B6BBA6A4F
:1021A0001A653B6B00225A653B6B0433184601F0FD
:1021B00075F83B6B1833184601F070F83B6B3A6BBF
:1021C0001A61BB6AC3F107023B6B9A613B6B3A6BC6
:1021D0005A623B6B00229A653B6B002283F85C20BD
:1021E0003A68F968B86902F09DF902463B6B1A60DB
:1021F000FB6A002B02D0FB6A3A6B1A6000BF2037E3
:10220000BD4680BD80B582B000AF786002F0BEFAF6
:102210002C4B1B6801332B4A13602B4B1B68002B84
:1022200009D1294A7B681360264B1B68012B10D10A
:1022300000F09AFC0DE0254B1B68002B09D1224BC6
:102240001B68DA6A7B68DB6A9A4202D81E4A7B689E
:1022500013601F4B1B6801331D4A13601C4B1A6827
:102260007B689A647B68DB6A01229A40194B1B6881
:102270001343184A13607B68DA6A13469B001344C1
:102280009B00154A1A447B6804331946104601F036
:1022900012F802F0A9FA0D4B1B68002B0ED00A4B66
:1022A0001B68DA6A7B68DB6A9A4207D20B4B4FF0F5
:1022B00080521A60BFF34F8FBFF36F8F00BF083794
:1022C000BD4680BD842C0010842B0010902C001083
:1022D000A02C00108C2C0010882B001004ED00E0C6
:1022E00080B584B000AF786002F050FA7B68002BB4
:1022F00002D1384B1B6800E07B68FB60FB6804334D
:10230000184601F035F80346002B15D1FB68DA6A50
:10231000314913469B0013449B000B441B68002B60
:102320000AD1FB68DB6A012202FA03F3DA432B4B82
:102330001B681340294A1360FB689B6A002B04D07A
:10234000FB681833184601F013F8254B1B6801335E
:10235000234A13601F4B1B68FA689A420BD1FB6833
:10236000043319461F4800F0A6FF1F4B1B680133BA
:102370001D4A136009E01D4B1B68013B1B4A13609B
:10238000F86800F05DFC00F089FC02F02DFA184BB3
:102390001B68002B1AD00F4B1B68FA689A4215D1A4
:1023A000144B1B68002B09D04FF0A00383F3118856
:1023B000BFF36F8FBFF34F8FBB60FEE70E4B4FF045
:1023C00080521A60BFF34F8FBFF36F8F00BF10377B
:1023D000BD4680BD842B0010882B00108C2C001073
:1023E000A02C0010582C00106C2C0010842C001015
:1023F000902C0010AC2C001004ED00E080B58AB0E9
:1024000004AF0023BB6000237B603A46391D07F10F
:102410000803184600F0EEFE39687B68BA6802923D
:1024200001930023009300230A4620492048FFF728
:10243000C2FD02461F4B1A601E4B1B68002B02D0C8
:1024400001237B6101E000237B617B69012B02D1C9
:10245000FFF736FA78617B69012B15D14FF0A003A5
:1024600083F31188BFF36F8FBFF34F8F3B61124B24
:102470004FF0FF321A60114B01221A60104B0022FC
:102480001A6002F0D5F80DE07B69B3F1FF3F09D186
:102490004FF0A00383F31188BFF36F8FBFF34F8F0B
:1024A000FB60FEE700BF1837BD4680BD8CCE001A2A
:1024B000392B001AA82C0010A42C0010902C00100E
:1024C000882C001080B400AF044B1B680133034A12
:1024D000136000BFBD465DF8047B7047AC2C001054
:1024E00080B584B000AF0023FB600023BB60414B8C
:1024F0001B68002B09D14FF0A00383F31188BFF3B1
:102500006F8FBFF34F8F3B60FEE702F03FF9394B0F
:102510001B68013B374A1360364B1B68002B61D1A7
:10252000354B1B68002B5DD02EE0344BDB68DB683D
:10253000FB60FB681833184600F01AFFFB68043391
:10254000184600F015FFFB68DB6A01229A402C4B0D
:102550001B6813432A4A1360FB68DA6A13469B0020
:1025600013449B00274A1A44FB680433194610465B
:1025700000F0A1FEFB68DA6A234B1B68DB6A9A4213
:1025800002D3224B01221A601C4B1B68002BCCD1BA
:10259000FB68002B01D000F081FB1D4B1B687B60AA
:1025A0007B68002B10D000F059F80346002B02D0B6
:1025B000164B01221A607B68013B7B607B68002B15
:1025C000F1D1134B00221A60104B1B68002B09D06D
:1025D0000123BB600F4B4FF080521A60BFF34F8F47
:1025E000BFF36F8F02F000F9BB6818461037BD4685
:1025F00080BD00BFAC2C0010842C0010442C0010B7
:102600008C2C0010882B0010842B0010982C0010AC
:10261000942C001004ED00E080B483B000AF054BB3
:102620001B687B607B6818460C37BD465DF8047BF1
:10263000704700BF882C001080B582B000AF02F058
:1026400081F900237B60044B1B683B603B681846A4
:102650000837BD4680BD00BF882C001080B586B00D
:1026600000AF00237B61504B1B68002B40F08C8037
:102670004E4B1B6801333B614C4A3B6913603B691D
:10268000002B1FD14A4B1B681B68002B09D04FF051
:10269000A00383F31188BFF36F8FBFF34F8F3B60AD
:1026A000FEE7434B1B68FB60424B1B68404A1360CC
:1026B000404AFB681360404B1B6801333E4A13607D
:1026C00000F0ECFA3D4B1B683A699A424DD3384B07
:1026D0001B681B68002B01D1012300E00023002BA5
:1026E00004D0364B4FF0FF321A603EE0304B1B688F
:1026F000DB68DB68BB60BB685B687B603A697B68F2
:102700009A4203D22D4A7B6813602EE0BB680433E3
:10271000184600F02DFEBB689B6A002B04D0BB68F6
:102720001833184600F024FEBB68DB6A01229A4089
:10273000234B1B681343224A1360BB68DA6A1346B3
:102740009B0013449B001F4A1A44BB68043319467C
:10275000104600F0B0FDBB68DA6A1B4B1B68DB6AF1
:102760009A42B4D301237B61B1E7174B1B68DA6A45
:10277000144913469B0013449B000B441B68012B18
:1027800007D901237B6104E0104B1B6801330F4A1A
:1027900013600F4B1B68002B01D001237B617B6909
:1027A00018461837BD4680BDAC2C0010882C001090
:1027B0003C2C0010402C00109C2C0010A42C00106D
:1027C0008C2C0010882B0010842B0010942C0010EF
:1027D000982C001080B588B000AF394B1B68002BD7
:1027E00003D0384B01221A6065E0364B00221A6094
:1027F000354B1B681B6BFB614FF0A533BB61FB695D
:102800001B68BA699A4211D1FB6904331B68BA6923
:102810009A420BD1FB6908331B68BA699A4205D109
:10282000FB690C331B68BA699A4208D0264B1A68B8
:10283000254B1B6834331946104600F0C5FC234B6A
:102840001B68FB60FB68B3FA83F3FB72FB7AC3F18E
:102850001F037B611E497A6913469B0013449B004A
:102860000B441B68002B09D14FF0A00383F31188A0
:10287000BFF36F8FBFF34F8F7B60FEE77A6913461C
:102880009B0013449B00124A13443B613B695B6805
:102890005A683B695A603B695A683B6908339A42F7
:1028A00004D13B695B685A683B695A603B695B6865
:1028B000DB68054A136000BF2037BD4680BD00BFFE
:1028C000AC2C0010982C0010842B00108C2C0010C5
:1028D000882B001080B584B000AF786039607B68C9
:1028E000002B09D14FF0A00383F31188BFF36F8F42
:1028F000BFF34F8FFB60FEE7074B1B681833194689
:10290000786800F0FCFC0121386800F0C7FB00BFCC
:102910001037BD4680BD00BF842B001080B586B047
:1029200000AFF860B9607A60FB68002B09D14FF006
:10293000A00383F31188BFF36F8FBFF34F8F7B61C9
:10294000FEE70A4B1B6818331946F86800F0B3FC21
:102950007B68002B02D04FF0FF33BB607968B8680A
:1029600000F09CFB00BF1837BD4680BD842B0010D3
:1029700080B586B000AF78607B68DB68DB683B6160
:102980003B69002B09D14FF0A00383F31188BFF3FB
:102990006F8FBFF34F8FFB60FEE73B69183318461C
:1029A00000F0E6FC1D4B1B68002B1CD13B69043377
:1029B000184600F0DDFC3B69DB6A01229A40184BA7
:1029C0001B681343164A13603B69DA6A13469B007F
:1029D00013449B00134A1A443B69043319461046BA
:1029E00000F069FC05E03B69183319460E4800F019
:1029F00062FC3B69DA6A0D4B1B68DB6A9A4205D9B7
:102A000001237B610A4B01221A6001E000237B61F4
:102A10007B6918461837BD4680BD00BFAC2C00103E
:102A20008C2C0010882B0010442C0010842B0010DC
:102A3000982C001080B483B000AF7860064B1A6801
:102A40007B681A60054B1A687B685A6000BF0C37B8
:102A5000BD465DF8047B70479C2C0010882C00104C
:102A600080B588B000AF786039607B68002B09D1F1
:102A70004FF0A00383F31188BFF36F8FBFF34F8F25
:102A80003B61FEE73B68002B09D14FF0A00383F3C5
:102A90001188BFF36F8FBFF34F8FFB60FEE701F02C
:102AA00075FE1D4B1B68BB617B685B68BA69D31AF6
:102AB0007B613B681B68B3F1FF3F02D10023FB61E0
:102AC00023E07B681A68154B1B689A4207D07B6825
:102AD0005B68BA699A4202D30123FB6115E03B6847
:102AE0001B687A699A420BD23B681A687B69D21AD2
:102AF0003B681A607868FFF79DFF0023FB6104E0E4
:102B00003B6800221A600123FB6101F06DFEFB6946
:102B100018462037BD4680BD882C00109C2C001024
:102B200080B400AF034B01221A6000BFBD465DF8C0
:102B3000047B7047982C001080B582B000AF78609D
:102B400000F052F8064B1B68012BF9D9054B4FF0EA
:102B500080521A60BFF34F8FBFF36F8FF0E700BF53
:102B6000882B001004ED00E080B582B000AF002398
:102B70007B600CE07A6813469B0013449B00124A6A
:102B80001344184600F06AFB7B6801337B607B6866
:102B9000062BEFD90D4800F061FB0D4800F05EFBFD
:102BA0000C4800F05BFB0C4800F058FB0B4800F0B1
:102BB00055FB0B4B054A1A600A4B054A1A6000BFC9
:102BC0000837BD4680BD00BF882B0010142C0010B4
:102BD000282C0010442C0010582C0010702C0010D1
:102BE0003C2C0010402C001080B582B000AF19E0E2
:102BF00001F0CCFD0F4BDB68DB687B607B68043346
:102C0000184600F0B5FB0C4B1B68013B0A4A1360E9
:102C10000A4B1B68013B094A136001F0E5FD786827
:102C200000F00EF8054B1B68002BE1D100BF083700
:102C3000BD4680BD582C0010842C00106C2C001058
:102C400080B584B000AF78607B6893F85D30002B6E
:102C500008D17B681B6B1846FEF71EFD7868FEF7EF
:102C60001BFD17E07B6893F85D30012B03D178687A
:102C7000FEF712FD0EE07B6893F85D30022B09D061
:102C80004FF0A00383F31188BFF36F8FBFF34F8F13
:102C9000FB60FEE700BF1037BD4680BD80B483B047
:102CA00000AF0F4B1B681B68002B01D1012300E014
:102CB0000023002B04D00B4B4FF0FF321A6008E0CA
:102CC000074B1B68DB68DB687B607B685B68054AD9
:102CD000136000BF0C37BD465DF8047B704700BF32
:102CE0003C2C0010A42C001080B483B000AF0B4B20
:102CF0001B68002B02D101237B6008E0084B1B6896
:102D0000002B02D102237B6001E000237B607B6803
:102D100018460C37BD465DF8047B7047902C0010B8
:102D2000AC2C001080B584B000AF78607B68BB60CD
:102D30000023FB607B68002B6ED0BB68DA6A394BDE
:102D40001B68DB6A9A425ED2BB689B69002B06DB7C
:102D5000344B1B68DB6AC3F10702BB689A61BB682E
:102D60005969BB68DA6A13469B0013449B002E4ADC
:102D70001344994201D1012300E00023002B3AD0F3
:102D8000BB680433184600F0F3FA0346002B15D154
:102D9000BB68DA6A244913469B0013449B000B442A
:102DA0001B68002B0AD1BB68DB6A012202FA03F31D
:102DB000DA431E4B1B6813401C4A1360194B1B68F7
:102DC000DA6ABB68DA62BB68DB6A01229A40174B99
:102DD0001B681343154A1360BB68DA6A13469B00ED
:102DE00013449B00104A1A44BB680433194610462A
:102DF00000F061FA04E00B4B1B68DA6ABB68DA6228
:102E00000123FB6008E0BB681A6D064B1B68DB6A98
:102E10009A4201D20123FB60FB6818461037BD4679
:102E200080BD00BF842B0010882B00108C2C00105C
:102E300080B586B000AF78607B683B6100237B6122
:102E40007B68002B6CD0394B1B683A699A4209D0D9
:102E50004FF0A00383F31188BFF36F8FBFF34F8F41
:102E6000FB60FEE73B695B6D002B09D14FF0A003CF
:102E700083F31188BFF36F8FBFF34F8FBB60FEE703
:102E80003B695B6D5A1E3B695A653B69DA6A3B696F
:102E90001B6D9A4244D03B695B6D002B40D13B696E
:102EA0000433184600F064FA0346002B15D13B6941
:102EB000DA6A1F4913469B0013449B000B441B68AE
:102EC000002B0AD13B69DB6A012202FA03F3DA43E1
:102ED000184B1B681340174A13603B691A6D3B6916
:102EE000DA623B69DB6AC3F107023B699A613B69BD
:102EF000DB6A01229A400F4B1B6813430D4A136093
:102F00003B69DA6A13469B0013449B00084A1A4443
:102F10003B6904331946104600F0CDF901237B616B
:102F20007B6918461837BD4680BD00BF842B001052
:102F3000882B00108C2C001080B588B000AF786012
:102F400039607B68BB6101237B617B68002B00F0EB
:102F50008680BB695B6D002B09D14FF0A00383F322
:102F60001188BFF36F8FBFF34F8FFB60FEE7BB6924
:102F70001B6D3A689A4202D93B68FB6102E0BB696B
:102F80001B6DFB61BB69DB6AFA699A4267D0BB695A
:102F90005B6D7A699A4262D1334B1B68BA699A4277
:102FA00009D14FF0A00383F31188BFF36F8FBFF3F4
:102FB0004F8FBB60FEE7BB69DB6A3B61BB69FA69A7
:102FC000DA62BB699B69002B04DBFB69C3F1070272
:102FD000BB699A61BB6959693A6913469B001344FE
:102FE0009B00224A1344994201D1012300E00023AF
:102FF000002B34D0BB690433184600F0B9F90346FE
:10300000002B15D1BB69DA6A184913469B0013449B
:103010009B000B441B68002B0AD1BB69DB6A0122B1
:1030200002FA03F3DA43124B1B681340104A136091
:10303000BB69DB6A01229A400D4B1B6813430C4AA3
:103040001360BB69DA6A13469B0013449B00074A6E
:103050001A44BB6904331946104600F02CF900BF2E
:103060002037BD4680BD00BF842B0010882B001088
:103070008C2C001080B400AF074B1B68002B04D0D1
:10308000054B1B685A6D01325A65034B1B68184685
:10309000BD465DF8047B7047842B001080B584B07A
:1030A00000AF78603960294B1B68FB60284B1B68B8
:1030B0000433184600F05CF90346002B0BD1244B77
:1030C0001B68DB6A012202FA03F3DA43214B1B6817
:1030D0001340204A13607B68B3F1FF3F0AD13B687D
:1030E000002B07D01A4B1B68043319461A4800F00E
:1030F000E2F826E0FA687B681344BB60144B1B6857
:10310000BA685A60BA68FB689A4209D2134B1A68C7
:103110000F4B1B6804331946104600F0F0F810E01E
:103120000F4B1A680A4B1B6804331946104600F00F
:10313000E6F80C4B1B68BA689A4202D2094ABB688F
:10314000136000BF1037BD4680BD00BF882C001043
:10315000842B00108C2C0010702C0010402C0010C0
:103160003C2C0010A42C001080B586B000AF786015
:1031700039607B683B610023FB603B687B6101F049
:1031800005FB3B697A691946064805F0E9FC00BF72
:10319000FB68002BFCD001F027FB00BF1837BD46B1
:1031A00080BD00BF94CE001A80B500AF044805F082
:1031B00039FD04492C20FFF7D7FF00BF80BD00BFB9
:1031C000D4CE001AF8CE001A80B582B000AF786075
:1031D00039603968054805F0C3FC05495020FFF700
:1031E000C3FF00BF0837BD4680BD00BF18CF001A1F
:1031F000F8CE001A80B485B000AFF860B9607A608C
:10320000FB68074A1A60BB68064A1A607B685A2244
:103210001A6000BF1437BD465DF8047B704700BFDD
:10322000B02C0010102D001080B485B000AFF860F5
:10323000B9607A60FB68074A1A60BB68064A1A6080
:103240007B684FF4B4721A6000BF1437BD465DF856
:10325000047B7047782E0010D82E001080B483B005
:1032600000AF78607B6803F108027B685A607B6876
:103270004FF0FF329A607B6803F108027B68DA60E6
:103280007B6803F108027B681A617B6800221A6080
:1032900000BF0C37BD465DF8047B704780B483B037
:1032A00000AF78607B6800221A6100BF0C37BD4612
:1032B0005DF8047B704780B485B000AF78603960FA
:1032C0007B685B68FB603B68FA685A60FB689A68D9
:1032D0003B689A60FB689B683A685A60FB683A688A
:1032E0009A603B687A681A617B681B685A1C7B6825
:1032F0001A6000BF1437BD465DF8047B704780B488
:1033000085B000AF786039603B681B68BB60BB6804
:10331000B3F1FF3F03D17B681B69FB600CE07B6866
:103320000833FB6002E0FB685B68FB60FB685B687E
:103330001B68BA689A42F6D2FB685A683B685A60C2
:103340003B685B683A689A603B68FA689A60FB6819
:103350003A685A603B687A681A617B681B685A1C35
:103360007B681A6000BF1437BD465DF8047B704768
:1033700080B485B000AF78607B681B69FB607B68B8
:103380005B687A6892689A607B689B687A68526822
:103390005A60FB685B687A689A4203D17B689A68D6
:1033A000FB685A607B6800221A61FB681B685A1E22
:1033B000FB681A60FB681B6818461437BD465DF849
:1033C000047B704780B584B000AF786039607B685B
:1033D000FB60FB68002B09D14FF0A00383F3118839
:1033E000BFF36F8FBFF34F8FBB60FEE701F0CEF9E5
:1033F000FB681A68FB68DB6BF968096C01FB03F377
:103400001A44FB685A60FB6800229A63FB681A68DA
:10341000FB689A60FB681A68FB68DB6B013BF96824
:10342000096C01FB03F31A44FB68DA60FB68FF22B6
:1034300083F84420FB68FF2283F845203B68002B7B
:1034400014D1FB681B69002B1AD0FB681033184697
:10345000FFF78EFA0346002B12D00D4B4FF080522F
:103460001A60BFF34F8FBFF36F8F09E0FB68103313
:103470001846FFF7F3FEFB6824331846FFF7EEFE0D
:1034800001F0B2F9012318461037BD4680BD00BFD8
:1034900004ED00E080B58EB002AFF860B9607A60EC
:1034A0003B60FB68002B09D14FF0A00383F3118828
:1034B000BFF36F8FBFF34F8FBB62FEE73B68002BFC
:1034C00009D14FF0A00383F31188BFF36F8FBFF3CF
:1034D0004F8F7B62FEE77B68002B02D0BB68002B1E
:1034E00001D0012300E00023002B09D14FF0A003FD
:1034F00083F31188BFF36F8FBFF34F8F3B62FEE7FB
:103500007B68002B02D1BB68002B01D1012300E0B6
:103510000023002B09D14FF0A00383F31188BFF3E0
:103520006F8FBFF34F8FFB61FEE750237B617B6999
:10353000502B09D04FF0A00383F31188BFF36F8F96
:10354000BFF34F8FBB61FEE73B68FB62FB6A002B5A
:103550000DD0FB6A012283F8462097F83820FB6AD9
:10356000009313467A68B968F86800F042F8FB6A7D
:1035700018463037BD4680BD80B58AB002AFF860CE
:10358000B9601346FB71FB68002B09D14FF0A00313
:1035900083F31188BFF36F8FBFF34F8F3B61FEE75B
:1035A000BB68002B02D10023FB6104E0FB68BA6812
:1035B00002FB03F3FB61FB6950331846FDF7A6FFDE
:1035C000B861BB69002B0FD0BB6950337B61BB690D
:1035D000002283F84620FA79BB69009313467A6982
:1035E000B968F86800F005F8BB6918462037BD4691
:1035F00080BD80B584B000AFF860B9607A60FB70C0
:10360000BB68002B03D1BB69BA691A6002E0BB69D1
:103610007A681A60BB69FA68DA63BB69BA681A64C7
:103620000121B869FFF7CEFEBB69FA7883F84C2018
:1036300000BF1037BD4680BD80B582B000AF786056
:103640007B68002B0ED07B6800225A607B680022CA
:103650001A607B680022DA6000230022002178686B
:1036600000F01CF800BF0837BD4680BD80B586B0AD
:1036700000AF0346FB7101237B6100233B61FB79B3
:103680001A4639697869FFF777FFF860F868FFF73D
:10369000D3FFFB6818461837BD4680BD80B58EB095
:1036A00000AFF860B9607A603B6000237B63FB6821
:1036B0003B633B6B002B09D14FF0A00383F31188D0
:1036C000BFF36F8FBFF34F8FBB62FEE7BB68002B6A
:1036D00003D13B6B1B6C002B01D1012300E00023C5
:1036E000002B09D14FF0A00383F31188BFF36F8F34
:1036F000BFF34F8F7B62FEE73B68022B03D13B6B2E
:10370000DB6B012B01D1012300E00023002B09D149
:103710004FF0A00383F31188BFF36F8FBFF34F8F78
:103720003B62FEE7FFF7E0FA0346002B02D17B681D
:10373000002B01D1012300E00023002B09D14FF021
:10374000A00383F31188BFF36F8FBFF34F8FFB612B
:10375000FEE701F01BF83B6B9A6B3B6BDB6B9A420D
:1037600002D33B68022B29D13A68B968386B00F064
:1037700043FDF8623B6B5B6A002B10D03B6B24333C
:103780001846FFF7F5F80346002B13D03F4B4FF0D8
:1037900080521A60BFF34F8FBFF36F8F0AE0FB6A4E
:1037A000002B07D0394B4FF080521A60BFF34F8F78
:1037B000BFF36F8F01F018F8012363E07B68002BE3
:1037C00003D101F011F800235CE07B6B002B06D1E4
:1037D00007F114031846FFF72DF901237B6301F06D
:1037E00003F8FEF76FFE00F0D1FF3B6B93F8443017
:1037F0005BB2B3F1FF3F03D13B6B002283F844205F
:103800003B6B93F845305BB2B3F1FF3F03D13B6BA9
:10381000002283F8452000F0E7FF3A1D07F114036A
:1038200011461846FFF71CF90346002B24D1386BCC
:1038300000F0DAFD0346002B18D03B6B10337A689A
:1038400011461846FFF746F8386B00F065FDFEF7A5
:1038500047FE0346002B7FF47CAF0C4B4FF08052A9
:103860001A60BFF34F8FBFF36F8F72E7386B00F0B2
:1038700053FDFEF735FE6CE7386B00F04DFDFEF7AB
:103880002FFE002318463837BD4680BD04ED00E00A
:1038900080B58EB000AFF860B9607A603B60FB68BD
:1038A0003B633B6B002B09D14FF0A00383F31188DE
:1038B000BFF36F8FBFF34F8F7B62FEE7BB68002BB8
:1038C00003D13B6B1B6C002B01D1012300E00023D3
:1038D000002B09D14FF0A00383F31188BFF36F8F42
:1038E000BFF34F8F3B62FEE73B68022B03D13B6B7C
:1038F000DB6B012B01D1012300E00023002B09D158
:103900004FF0A00383F31188BFF36F8FBFF34F8F86
:10391000FB61FEE701F016F8EFF311824FF0A00310
:1039200083F31188BFF36F8FBFF34F8FBA617B6151
:10393000BB69FB623B6B9A6B3B6BDB6B9A4202D3BE
:103940003B68022B2CD13B6B93F8453087F82B302A
:103950003A68B968386B00F04FFC97F92B30B3F137
:10396000FF3F12D13B6B5B6A002B16D03B6B2433BD
:103970001846FEF7FDFF0346002B0ED07B68002B98
:103980000BD07B6801221A6007E097F82B300133D7
:10399000DBB25AB23B6B83F8452001237B6301E025
:1039A00000237B63FB6A3B613B6983F311887B6B7C
:1039B00018463837BD4680BD80B58EB000AF786000
:1039C00039607B683B633B6B002B09D14FF0A00350
:1039D00083F31188BFF36F8FBFF34F8F3B62FEE716
:1039E0003B6B1B6C002B09D04FF0A00383F31188B5
:1039F000BFF36F8FBFF34F8FFB61FEE73B6B1B681D
:103A0000002B03D13B6B5B68002B01D1012300E04D
:103A10000023002B09D14FF0A00383F31188BFF3DB
:103A20006F8FBFF34F8FBB61FEE700F08BFFEFF3AB
:103A300011824FF0A00383F31188BFF36F8FBFF3A0
:103A40004F8F7A613B617B69FB623B6B9B6BBB6217
:103A50003B6BDB6BBA6A9A422BD23B6B93F84530D7
:103A600087F82730BB6A5A1C3B6B9A6397F927305B
:103A7000B3F1FF3F12D13B6B5B6A002B16D03B6B5F
:103A800024331846FEF774FF0346002B0ED03B6824
:103A9000002B0BD03B6801221A6007E097F8273013
:103AA0000133DBB25AB23B6B83F8452001237B63C1
:103AB00001E000237B63FB6AFB60FB6883F31188F2
:103AC0007B6B18463837BD4680BDFFFF80B58CB094
:103AD00000AFF860B9607A600023FB62FB68BB62EC
:103AE000BB6A002B09D14FF0A00383F31188BFF309
:103AF0006F8FBFF34F8F3B62FEE7BB68002B03D194
:103B0000BB6A1B6C002B01D1012300E00023002BBA
:103B100009D14FF0A00383F31188BFF36F8FBFF378
:103B20004F8FFB61FEE7FFF7DFF80346002B02D162
:103B30007B68002B01D1012300E00023002B09D179
:103B40004FF0A00383F31188BFF36F8FBFF34F8F44
:103B5000BB61FEE700F01AFEBB6A9B6B7B627B6A6F
:103B6000002B1FD0B968B86A00F0B0FB7B6A5A1E00
:103B7000BB6A9A63BB6A1B69002B0FD0BB6A103308
:103B80001846FEF7F5FE0346002B07D03C4B4FF0DE
:103B900080521A60BFF34F8FBFF36F8F00F024FE87
:103BA000012369E07B68002B03D100F01DFE002398
:103BB00062E0FB6A002B06D107F110031846FEF7FE
:103BC00039FF0123FB6200F00FFEFEF77BFC00F0E3
:103BD000DDFDBB6A93F844305BB2B3F1FF3F03D124
:103BE000BB6A002283F84420BB6A93F845305BB27D
:103BF000B3F1FF3F03D1BB6A002283F8452000F0F8
:103C0000F3FD3A1D07F1100311461846FEF728FF91
:103C10000346002B23D1B86A00F0D0FB0346002BEB
:103C200017D0BB6A24337A6811461846FEF752FE55
:103C3000B86A00F071FBFEF753FC0346002B89D1F4
:103C40000F4B4FF080521A60BFF34F8FBFF36F8F4F
:103C500080E7B86A00F060FBFEF742FC7AE7B86ADA
:103C600000F05AFBFEF73CFCB86A00F0A7FB0346E5
:103C7000002B3FF46FAF002318463037BD4680BDA0
:103C800004ED00E080B58EB000AF786039600023AD
:103C90007B637B68FB6200233B63FB6A002B09D1DB
:103CA0004FF0A00383F31188BFF36F8FBFF34F8FE3
:103CB0003B62FEE7FB6A1B6C002B09D04FF0A003B0
:103CC00083F31188BFF36F8FBFF34F8FFB61FEE764
:103CD000FFF70AF80346002B02D13B68002B01D105
:103CE000012300E00023002B09D14FF0A00383F350
:103CF0001188BFF36F8FBFF34F8FBB61FEE700F0FA
:103D000045FDFB6A9B6BBB62BB6A002B24D0BB6A80
:103D10005A1EFB6A9A63FB6A1B68002B04D1FFF7EB
:103D2000A9F90246FB6A5A60FB6A1B69002B0FD097
:103D3000FB6A10331846FEF71BFE0346002B07D024
:103D4000534B4FF080521A60BFF34F8FBFF36F8F0A
:103D500000F04AFD012396E03B68002B10D13B6B3D
:103D6000002B09D04FF0A00383F31188BFF36F8FAE
:103D7000BFF34F8F7B61FEE700F036FD002382E04A
:103D80007B6B002B06D107F10C031846FEF752FEA1
:103D900001237B6300F028FDFEF794FB00F0F6FCA6
:103DA000FB6A93F844305BB2B3F1FF3F03D1FB6A87
:103DB000002283F84420FB6A93F845305BB2B3F1EC
:103DC000FF3F03D1FB6A002283F8452000F00CFD81
:103DD0003A4607F10C0311461846FEF741FE03462A
:103DE000002B32D1F86A00F0E9FA0346002B26D006
:103DF000FB6A1B68002B09D100F0C8FCFB6A5B68FA
:103E00001846FEF78FFF386300F0EEFCFB6A2433A0
:103E10003A6811461846FEF75DFDF86A00F07CFA34
:103E2000FEF75EFB0346002B7FF469AF184B4FF0A3
:103E300080521A60BFF34F8FBFF36F8F5FE7F86A4E
:103E400000F06AFAFEF74CFB59E7F86A00F064FAF2
:103E5000FEF746FBF86A00F0B1FA0346002B3FF488
:103E60004EAF3B6B002B0DD000F090FCF86A00F0D9
:103E7000ABF97862FB6A5B68796A1846FFF75CF811
:103E800000F0B2FC002318463837BD4680BD00BFA5
:103E900004ED00E080B58EB000AFF860B9607A60E4
:103EA00000237B63FB683B633B6B002B09D14FF026
:103EB000A00383F31188BFF36F8FBFF34F8F7B6233
:103EC000FEE7BB68002B03D13B6B1B6C002B01D1C1
:103ED000012300E00023002B09D14FF0A00383F35E
:103EE0001188BFF36F8FBFF34F8F3B62FEE7FEF782
:103EF000FBFE0346002B02D17B68002B01D101237E
:103F000000E00023002B09D14FF0A00383F31188B8
:103F1000BFF36F8FBFF34F8FFB61FEE700F036FCFE
:103F20003B6B9B6BFB62FB6A002B21D03B6BDB681E
:103F3000BB62B968386B00F0C9F93B6BBA6ADA60EA
:103F40003B6B5B6A002B0FD03B6B24331846FEF7AC
:103F50000FFD0346002B07D03C4B4FF080521A60F8
:103F6000BFF34F8FBFF36F8F00F03EFC012369E07A
:103F70007B68002B03D100F037FC002362E07B6BF1
:103F8000002B06D107F114031846FEF753FD012359
:103F90007B6300F029FCFEF795FA00F0F7FB3B6B22
:103FA00093F844305BB2B3F1FF3F03D13B6B002287
:103FB00083F844203B6B93F845305BB2B3F1FF3F8D
:103FC00003D13B6B002283F8452000F00DFC3A1D25
:103FD00007F1140311461846FEF742FD0346002B75
:103FE00023D1386B00F0EAF90346002B17D03B6B66
:103FF00024337A6811461846FEF76CFC386B00F0E3
:104000008BF9FEF76DFA0346002B87D10F4B4FF06B
:1040100080521A60BFF34F8FBFF36F8F7EE7386B0C
:1040200000F07AF9FEF75CFA78E7386B00F074F983
:10403000FEF756FA386B00F0C1F90346002B3FF447
:104040006DAF002318463837BD4680BD04ED00E053
:1040500080B58EB000AFF860B9607A60FB683B63F2
:104060003B6B002B09D14FF0A00383F31188BFF302
:104070006F8FBFF34F8F3B62FEE7BB68002B03D10E
:104080003B6B1B6C002B01D1012300E00023002BB4
:1040900009D14FF0A00383F31188BFF36F8FBFF3F3
:1040A0004F8FFB61FEE700F04DFCEFF311824FF004
:1040B000A00383F31188BFF36F8FBFF34F8FBA61F3
:1040C0007B61BB69FB623B6B9B6BBB62BB6A002B7A
:1040D0002FD03B6B93F8443087F82730B968386BA2
:1040E00000F0F4F8BB6A5A1E3B6B9A6397F92730CD
:1040F000B3F1FF3F12D13B6B1B69002B16D03B6B1A
:1041000010331846FEF734FC0346002B0ED07B68B4
:10411000002B0BD07B6801221A6007E097F827304C
:104120000133DBB25AB23B6B83F8442001237B633B
:1041300001E000237B63FB6A3B613B6983F31188E9
:104140007B6B18463837BD4680BD80B584B000AF64
:1041500078607B68002B09D14FF0A00383F31188AE
:10416000BFF36F8FBFF34F8FBB60FEE700F00EFB16
:104170007B689B6BFB6000F037FBFB6818461037D1
:10418000BD4680BD80B584B000AF78607B68FB60C1
:10419000FB68002B09D14FF0A00383F31188BFF314
:1041A0006F8FBFF34F8FBB60FEE7F86800F05CF9DC
:1041B000FB6893F84630002B02D1F868FDF76CFAE3
:1041C00000BF1037BD4680BD80B485B000AF7860B9
:1041D0007B685B6A002B06D07B681B6B1B68C3F196
:1041E0000703FB6001E00023FB60FB6818461437FF
:1041F000BD465DF8047B704780B586B000AFF860BF
:10420000B9607A6000237B61FB689B6B3B61FB6854
:104210001B6C002B0DD1FB681B68002B4DD1FB687C
:104220005B681846FEF704FE7861FB6800225A605E
:1042300043E07B68002B19D1FB689868FB681B6C16
:104240001A46B96804F096FBFB689A68FB681B6C19
:104250001A44FB689A60FB689A68FB685B689A423C
:104260002BD3FB681A68FB689A6026E0FB68D86865
:10427000FB681B6C1A46B96804F07CFBFB68DA68C3
:10428000FB681B6C5B421A44FB68DA60FB68DA6807
:10429000FB681B689A4207D2FB685A68FB681B6C74
:1042A0005B421A44FB68DA607B68022B05D13B69EC
:1042B000002B02D03B69013B3B613B695A1CFB6808
:1042C0009A637B6918461837BD4680BD80B582B0B9
:1042D00000AF786039607B681B6C002B18D07B685E
:1042E000DA687B681B6C1A447B68DA607B68DA6882
:1042F0007B685B689A4203D37B681A687B68DA60E4
:104300007B68D9687B681B6C1A46386804F032FBFE
:1043100000BF0837BD4680BD80B584B000AF78606F
:1043200000F034FA7B6893F84530FB7311E07B684A
:104330005B6A002B12D07B6824331846FEF718FB0B
:104340000346002B01D0FEF7EBFBFB7B013BDBB20E
:10435000FB7397F90F30002BE9DC00E000BF7B68AE
:10436000FF2283F8452000F03FFA00F00FFA7B6847
:1043700093F84430BB7311E07B681B69002B12D0AB
:104380007B6810331846FEF7F3FA0346002B01D082
:10439000FEF7C6FBBB7B013BDBB2BB7397F90E306C
:1043A000002BE9DC00E000BF7B68FF2283F844209B
:1043B00000F01AFA00BF1037BD4680BD80B584B04A
:1043C00000AF786000F0E2F97B689B6B002B02D1B4
:1043D0000123FB6001E00023FB6000F005FAFB68AD
:1043E00018461037BD4680BD80B584B000AF7860F8
:1043F00000F0CCF97B689A6B7B68DB6B9A4202D148
:104400000123FB6001E00023FB6000F0EDF9FB6895
:1044100018461037BD4680BD80B485B000AF7860C7
:1044200039600023FB6014E00E4AFB6852F8333019
:10443000002B0BD10B49FB683A6841F83320094A3D
:10444000FB68DB0013447A685A6005E0FB680133BF
:10445000FB60FB68072BE7D900BF1437BD465DF84A
:10446000047B70476435001080B485B000AF78607D
:104470000023FB6016E0104AFB68DB0013445B6816
:104480007A689A420BD10C4AFB68002142F833103B
:10449000094AFB68DB00134400225A6005E0FB6810
:1044A0000133FB60FB68072BE5D900BF1437BD461D
:1044B0005DF8047B704700BF6435001080B586B09E
:1044C00000AFF860B9607A60FB687B6100F05EF96C
:1044D0007B6993F844305BB2B3F1FF3F03D17B6952
:1044E000002283F844207B6993F845305BB2B3F136
:1044F000FF3F03D17B69002283F8452000F074F967
:104500007B699B6B002B06D17B6924337A68B96881
:104510001846FEF703FA7869FFF7FEFE00BF18376A
:10452000BD4680BD80B485B000AFF860B9607A60E8
:10453000FB68043BFB60FB684FF080721A60FB680D
:10454000043BFB60BB6823F00102FB681A60FB6858
:10455000043BFB600C4AFB681A60FB68143BFB6081
:104560007A68FB681A60FB68043BFB60FB686FF0CD
:1045700002021A60FB68203BFB60FB681846143798
:10458000BD465DF8047B70478D45001A80B485B048
:1045900000AF00237B60114B1B68B3F1FF3F09D0D4
:1045A0004FF0A00383F31188BFF36F8FBFF34F8FDA
:1045B000FB60FEE74FF0A00383F31188BFF36F8F1A
:1045C000BFF34F8FBB6000BF7B68002BFCD000BFE8
:1045D0001437BD465DF8047B704700BF1000001023
:1045E000074B19680868B0E8F04F80F30988BFF3FB
:1045F0006F8F4FF0000080F311887047AFF3008099
:10460000842B001000BF00BF08480068006880F3DA
:1046100008884FF0000080F3148862B661B6BFF3DB
:104620004F8FBFF36F8F00DF00BF00BF08ED00E0CA
:1046300080B588B000AF4C4B1B684C4A934209D1FF
:104640004FF0A00383F31188BFF36F8FBFF34F8F39
:10465000BB61FEE7444B1B68454A934209D14FF0CA
:10466000A00383F31188BFF36F8FBFF34F8F7B617C
:10467000FEE7404BFB61FB691B78DBB2BB60FB696B
:10468000FF221A70FB691B78DBB2FB71FB79DBB28E
:1046900023F05F03DAB2384B1A70384B07221A60E6
:1046A00009E0364B1B68013B344A1360FB79DBB2EF
:1046B0005B00DBB2FB71FB79DBB203F08003802B84
:1046C000EFD02E4B1B68C3F10703032B09D04FF02B
:1046D000A00383F31188BFF36F8FBFF34F8F3B614C
:1046E000FEE7264B1B68C3F10703032B09D04FF0ED
:1046F000A00383F31188BFF36F8FBFF34F8FFB606D
:10470000FEE71E4B1B681B021C4A13601B4B1B68F9
:1047100003F4E063194A1360BB68DAB2FB691A70EC
:10472000174B1B68164A43F460031360144B1B6855
:10473000134A43F06043136000F0D6F8114B002297
:104740001A6000F0F5F8104B1B680F4A43F0404325
:104750001360FFF759FFFEF73DF8FFF717FF00233F
:1047600018462037BD4680BD00ED00E071C20F4104
:1047700070C20F4100E400E0783400107C34001077
:1047800020ED00E01000001034EF00E080B483B0B2
:1047900000AF4FF0A00383F31188BFF36F8FBFF317
:1047A0004F8F7B600E4B1B6801330D4A13600C4B1F
:1047B0001B68012B0ED10B4B1B68DBB2002B09D001
:1047C0004FF0A00383F31188BFF36F8FBFF34F8FB8
:1047D0003B60FEE700BF0C37BD465DF8047B7047C9
:1047E0001000001004ED00E080B483B000AF114B66
:1047F0001B68002B09D14FF0A00383F31188BFF38E
:104800006F8FBFF34F8F7B60FEE70A4B1B68013B46
:10481000084A1360074B1B68002B04D100233B6040
:104820003B6883F3118800BF0C37BD465DF8047BFD
:10483000704700BF10000010FFFFFFFFFFFFFFFFEA
:10484000EFF30980BFF36F8F154B1A681EF0100F3E
:1048500008BF20ED108A20E9F04F10602DE9090013
:104860004FF0A00080F31188BFF34F8FBFF36F8F1D
:10487000FDF7B0FF4FF0000080F3118809BC196804
:104880000868B0E8F04F1EF0100F08BFB0EC108AB7
:1048900080F30988BFF36F8F704700BFAFF30080CC
:1048A000842B001000BF00BF80B582B000AF4FF076
:1048B000A00383F31188BFF36F8FBFF34F8F7B602B
:1048C000FDF7CCFE0346002B03D0064B4FF0805281
:1048D0001A6000233B603B6883F3118800BF0837F0
:1048E000BD4680BD04ED00E080B400AF0B4B00225C
:1048F0001A600B4B00221A600A4B1B680A4AA2FB83
:1049000003239B09094A013B1360044B07221A60E9
:1049100000BFBD465DF8047B704700BF10E000E0BB
:1049200018E000E0A4350010D34D621014E000E060
:10493000DFF80C00016841F470010160704700BFAE
:1049400088ED00E080B485B000AFEFF30583FB6035
:10495000FB680F2B13D9164AFB6813441B78FB72B4
:10496000144B1B78FA7A9A4209D24FF0A00383F3D2
:104970001188BFF36F8FBFF34F8F7B60FEE70E4B45
:104980001B6803F4E0620D4B1B689A4209D94FF093
:10499000A00383F31188BFF36F8FBFF34F8F3B608A
:1049A000FEE700BF1437BD465DF8047B704700BFCB
:1049B000F0E300E0783400100CED00E07C340010EF
:1049C00080B483B000AF0346FB7197F90730002B2A
:1049D0000CDBFB7903F01F02074997F907305B09ED
:1049E000012000FA02F2603341F8232000BF0C37A7
:1049F000BD465DF8047B704700E100E080B500AF84
:104A00000020FFF7DDFF044B1B68002B02D0024B98
:104A10001B68984700BF80BD8034001080B483B00D
:104A200000AF0346FB710B46BB711346BB800748C2
:104A3000F979BB79BA8849010B4440F8232000BFBB
:104A40000C37BD465DF8047B704700BF006008402E
:104A500080B584B000AF786039600023FB6014E05B
:104A6000FB689B007A6813441878FB689B007A689F
:104A700013445978FB689B007A6813445B881A4694
:104A8000FFF7CCFFFB680133FB60FA683B689A4292
:104A9000E6D300BF1037BD4680BDFFFF80B485B0B0
:104AA00000AF78607B68104AA2FB0323DB0DFB603C
:104AB0000E4BD3F8203123F47042FB681B030B49E3
:104AC0001343C1F82031094BD3F8243123F4704249
:104AD000FB681B0305491343C1F8243100BF143799
:104AE000BD465DF8047B70477D26D66300300440E8
:104AF00080B500AF1D210248FFF7AAFF00BF80BDAF
:104B000064CF001A80B582B000AF1848FFF7C6FF27
:104B100001221649062000F0FBFC00237B6011E017
:104B20007B689B00124A13443B603B6818783B68E3
:104B300059783B689A783B68DB7801F057F97B68D5
:104B400001337B607B68002BEAD00A4B5B68094A23
:104B500023F00C035360074B5B68064A43F00303E2
:104B6000536000BF0837BD4680BD00BF00CB280C96
:104B700060CF001A0030044080B500AFFFF7B8FFE7
:104B8000FFF7C0FF00BF80BD80B483B000AF786086
:104B9000044A7B68C2F8843C00BF0C37BD465DF810
:104BA000047B70470060084080B483B000AF786039
:104BB000084611461A460346FB700B46BB70134667
:104BC0007B70FA78BB787878796852010A4413448C
:104BD00002461A7000BF0C37BD465DF8047B704773
:104BE00080B483B000AF78600B46FB701346BB7097
:104BF000FA787B6802F5006253F82210BB78012234
:104C000002FA03F3FA7819437B6802F5006243F86D
:104C1000221000BF0C37BD465DF8047B704780B49E
:104C200083B000AF78600B46FB701346BB70FA7818
:104C30007B6802F5006253F82210BB78012202FA69
:104C400003F3DB43FA7819407B6802F5006243F80E
:104C5000221000BF0C37BD465DF8047B704780B45E
:104C600083B000AF78607B685B6843F002027B68CA
:104C70005A6000BF0C37BD465DF8047B704780B4B6
:104C800085B000AFF860B9607A603B60FB681B6874
:104C900023F0FF02BB681A437B681A433B681A4340
:104CA000FB681A6000BF1437BD465DF8047B70478F
:104CB00080B483B000AF786039607B685B6823F0B4
:104CC00004023B681A437B685A6000BF0C37BD463C
:104CD0005DF8047B704780B483B000AF78607B6878
:104CE0000122DA6500BF0C37BD465DF8047B7047D2
:104CF00080B483B000AF78600B46FB70FA787B68B5
:104D00001A6000BF0C37BD465DF8047B704780B465
:104D100083B000AF78607B681B68DBB218460C3745
:104D2000BD465DF8047B704780B483B000AF786007
:104D300039607B683A68DA6000BF0C37BD465DF8C1
:104D4000047B704780B483B000AF78607B685B6998
:104D500018460C37BD465DF8047B704780B582B0BD
:104D600000AF00237B6017E07B685B000E4A1344B2
:104D70003B603B6819783B685B781A460B48FFF745
:104D80002FFF3B6819783B685A7800230748FFF7E4
:104D90000BFF7B6801337B607B68052BE4D900BF88
:104DA0000837BD4680BD00BFE0CF001A00400F406D
:104DB00080B582B000AF00237B600FE07B685B00B2
:104DC0000A4A13443B603B6819783B685B781A4693
:104DD0000748FFF724FF7B6801337B607B68032B68
:104DE000ECD900BF0837BD4680BD00BFECCF001A2C
:104DF00000400F4080B582B000AF00237B600FE021
:104E00007B685B000A4A13443B603B6819783B6847
:104E10005B781A460748FFF702FF7B6801337B6027
:104E20007B68082BECD900BF0837BD4680BD00BFAA
:104E3000F4CF001A00400F4080B500AF002000F012
:104E4000EBF940F60800FFF79FFE0349002000F051
:104E5000FDF900BF80BD00BF40420F0080B500AF2C
:104E60000A4800F05DF900210848FFF721FF002300
:104E7000002207210548FFF702FF0549034800F01B
:104E800014F90248FFF7EBFE00BF80BD00500C4054
:104E9000A086010080B582B000AF3B4619460948A4
:104EA00000F064FA3B46084A1946064800F0A2FAA8
:104EB0003B4600221946034800F0CEFA00BF0837EF
:104EC000BD4680BD00300E40801A060080B500AFA0
:104ED000084801F043F94FF4E131064801F0BAF90E
:104EE00003210448FFF720FF0248FFF7F4FE00BF4C
:104EF00080BD00BF00100C4080B582B000AF0346FB
:104F0000FB7100BF0848FFF71DFF034603F02003B5
:104F1000002BF7D0FB7919460348FFF7E9FE00BFE5
:104F20000837BD4680BD00BF00100C4080B500AF03
:104F30000848FFF707FF034603F00103002B04D0E6
:104F40000448FFF7E4FE034601E04FF0FF33184644
:104F500080BD00BF00100C4080B500AFFFF7B6FF6A
:104F6000094800F0A7F9FFF745FFFFF793FFFFF7A8
:104F700075FFFFF761FFFFF7F1FEFFF719FF00F084
:104F80006BFB00BF80BD00BF00400F4080B582B00A
:104F900000AF78607B68DBB21846FFF7ADFF00BF5B
:104FA0000837BD4680BD80B500AFFFF7BFFF0346A1
:104FB000184680BD80B500AFFFF788FF00BF80BDF9
:104FC00080B485B000AFF860B9607A603B60FB6880
:104FD0001B6823F0FF02BB681A437B681A433B68D7
:104FE0001A43FB681A6000BF1437BD465DF8047BA6
:104FF000704780B483B000AF786039607B685B68CD
:1050000023F004023B681A437B685A6000BF0C37E8
:10501000BD465DF8047B704780B485B000AF786012
:105020007B68074A934202D1A523FB8101E08323D9
:10503000FB81FB8918461437BD465DF8047B704739
:1050400000500C4080B485B000AF78607B68084A9F
:10505000934203D14FF4F173FB8102E040F202234B
:10506000FB81FB8918461437BD465DF8047B704709
:1050700000500C4080B487B000AFF860B9607A602F
:10508000FB681B6823F47F437B61BB681B029AB2F9
:105090007B691A43FB681A60FB687A681A6100BF73
:1050A0001C37BD465DF8047B704780B586B000AF05
:1050B000786039607868FFF7C5FF0346184600F04E
:1050C00077FFB86000237B614FF0FF333B61022321
:1050D000FB6017E07B690133FA6802FB03F3BA68EF
:1050E000B2FBF3F33B613A693B689A420AD97B69A8
:1050F00001337B617B69FF2B04D900237B61FB6853
:105100000233FB603A693B689A42E3D8FA687969EE
:105110007868FFF7AFFF00BF1837BD4680BDFFFFBF
:1051200080B582B000AF78607868FFF775FF0346FE
:10513000184600F00DFF7868FFF784FF0346184615
:1051400000F006FF00217868FFF753FF00230022DC
:1051500007217868FFF734FF03497868FFF7A5FF58
:1051600000BF0837BD4680BDA086010080B582B073
:1051700000AF0346FB71FA7907491346DB009B1A1F
:105180009B000B4404331B88184600F0E1FE00BF6F
:105190000837BD4680BD00BF1400001080B582B046
:1051A00000AF0346FB71FA7907491346DB009B1AEF
:1051B0009B000B4404331B88184600F0F9FE03469D
:1051C00018460837BD4680BD1400001080B485B075
:1051D00000AF03460A46FB711346BB71FA791346CA
:1051E000DB009B1A9B000B4A1344FB60BB79012B2D
:1051F0000AD1FB681B691433BB6000BFBB681B7816
:10520000DBB2042BFAD000E000BF1437BD465DF8D6
:10521000047B70471400001080B582B000AF0346D5
:10522000FB71FB791846FFF7A1FFFA79064913468F
:10523000DB009B1A9B000B441B686C229A6100BF29
:105240000837BD4680BD00BF1400001080B584B093
:1052500000AF03463960FB71FB791846FFF79EFFEC
:1052600002463B68B2FBF3F3FB60FA791049134640
:10527000DB009B1A9B000B441B68FA6852081A61FA
:10528000FA790B491346DB009B1A9B000B441B6801
:105290001969FA7906481346DB009B1A9B00034400
:1052A0001B68FA68521A5A6100BF1037BD4680BDAC
:1052B0001400001080B483B000AF786000BF0C37DA
:1052C000BD465DF8047B704780B400AF0B231846E1
:1052D000BD465DF8047B704780B485B000AF786050
:1052E0007B68074A934202D10423FB8101E0032338
:1052F000FB81FB8918461437BD465DF8047B704777
:1053000000400E4080B588B000AFF8607A601A4661
:105310000B46FB721346BB72F868FFF7DDFF0346CE
:10532000184600F045FEB861FB7A002B05D0BA7A2A
:105330007B6802FB03F3FB6107E0FFF7C5FF034651
:105340001A467B6802FB03F3FB61BB695A00FB69E9
:105350001A44FB695B00B2FBF3F3DBB2013BFB7564
:10536000FB7D18462037BD4680BDFFFF80B586B067
:1053700000AF7860396000237B617868FFF7ACFF8D
:105380000346184601230122012100F0A3FD7B689A
:105390000022DA607B6943F400137B613B68144AA6
:1053A0001A603B6800221A710B233B613B680022A4
:1053B0005A713B681A683B69DBB200217868FFF7D5
:1053C000A1FF0346FB73FB7B1B021A467B69134359
:1053D0007B613B681B795B0403F460237A691343A8
:1053E0007B617B687A691A6000BF1837BD4680BD53
:1053F000801A060080B586B000AFF860B9607A60A8
:10540000FB681B6823F46F2323F470637B61BB6824
:105410007A681A60BB685979BB681B79C3F10B03C2
:10542000DBB27A68F868FFF76DFF0346FB74FB7C1C
:105430001B021A467B6913437B61BB681B795B04C3
:1054400003F460237A6913437B61FB687A691A600D
:1054500000BF1837BD4680BD80B584B000AFF8608E
:10546000B9601346FB71BB68FA791A71BB681B6897
:105470001A46B968F868FFF7BDFF00BF1037BD4690
:1054800080BDFFFF80B400AF054B5B6C044A43F066
:105490000103536400BFBD465DF8047B704700BF45
:1054A0000000054080B483B000AF78607B681B6863
:1054B0001A467B681B791B0613437A68126912042B
:1054C00013437A689268120313437A68D26812020F
:1054D0001343054A43F40063536400BF0C37BD46D1
:1054E0005DF8047B704700BF0000054080B400AF4A
:1054F000064B1B6C03F00103002B14BF0123002398
:10550000DBB21846BD465DF8047B704700000540DD
:1055100090B58FB000AF03463960FB711346BB7185
:105520004CF25033BB6200233B630023FB62FB79E8
:10553000062B01D100F068FAF9790023012204203A
:1055400000F054FCFFF79EFFFB793B7307F1080363
:105550001946386800F090FA3B683D4A934216D9E4
:10556000BB6803F04003002B00D0FEE7BB6803F0EC
:105570008003002B06D001233B63BB6823F080032C
:10558000BB6004E00123FB627B6901337B6107F1AF
:1055900008031846FFF786FF00BFFFF7A7FF034683
:1055A000002BFAD0002301220921042000F01EFC68
:1055B0003B6B002B12D04CF25033BB6200BFBB6A76
:1055C0005A1EBA62002BFAD1BB6843F08003BB605D
:1055D00007F108031846FFF765FF13E0FB6A002B8D
:1055E00010D04CF25033BB6200BFBB6A5A1EBA6285
:1055F000002BFAD17B69013B7B6107F10803184658
:10560000FFF750FFBB79002B1ED000237B6318E00F
:10561000104A7B6B12F823000E4A7B6B9B001344ED
:1056200059780C4A7B6B9B0013449C78094A7B6B2E
:105630009B001344DB78224600F0D8FB7B6B0133E0
:105640007B637B6B112BE3D900BF3C37BD4690BD1C
:1056500080778E0608D0001A80B500AF692000F070
:10566000A7FC0246014B1A6000BF80BDA4350010A4
:1056700080B483B000AF78607B68002B02DA7B686F
:105680005B4200E07B6818460C37BD465DF8047B42
:105690007047FFFF80B588B000AF786039607B68E5
:1056A000FB613B681B6803F08003002B05D03B685F
:1056B0001B6823F040023B681A600123BB616FE066
:1056C00000233B6166E001237B615AE03B681B6875
:1056D00003F04003002B0ED03B6901337A6902FAD4
:1056E00003F31A463B685B6903FB02F2BB69B2FB3A
:1056F000F3F3FB6008E03B685B697A6902FB03F245
:10570000BB69B2FBF3F3FB60FB68294A934234D9CF
:10571000FB68284A934239D83B681B6803F0800332
:10572000002B02D0FB68BB6005E03B690133FA68DF
:1057300022FA03F3BB607A68BB68D31A1846FFF7F6
:1057400097FF0246FB69934218D93B68BA699A6091
:105750003B695A1C3B68DA603B687A691A613B68AE
:10576000BA689A613B68FA68DA617A68BB68D31AEA
:105770001846FFF77DFFF86100E000BF7B69013349
:105780007B617B69B3F5807FA0DD00E000BF3B69F2
:1057900001333B613B69032B95DDBB690133BB6181
:1057A000BB69042B8CDD00BF2037BD4680BD00BF28
:1057B000FF5E4C0900D01213B0B59EB000AF786008
:1057C000396007F10C0360220021184603F06CF9E0
:1057D000FB6843F08003FB603B685B693B623B68AE
:1057E0001B793B7407F10C0319467868FFF752FFE9
:1057F0007B6A7A689A420AD13B681D4607F10C041D
:105800000FCC0FC594E80F0085E80F008EE07B6A8F
:105810007A68D31A1846FFF72BFF0346FB66FB6C2A
:1058200023F04003FB643B685B693B663B681B7984
:1058300087F8503007F10C03403319467868FFF7BA
:1058400029FF7B6E7A689A420AD13B681D4607F1B0
:105850004C040FCC0FC594E80F0085E80F0065E0FD
:105860007B6E7A68D31A1846FFF702FF03467B6700
:105870007B68304A93421AD84023FB623B685B69DD
:105880003B6407F10C03203319467868FFF702FFE9
:105890007B6C7A689A420AD13B681D4607F12C045A
:1058A0000FCC0FC594E80F0085E80F003EE07B6C3D
:1058B0007A68D31A1846FFF7DBFE03463B67FA6E99
:1058C0003B6F9A4219DCFA6E7B6F9A420ADC3B68A6
:1058D0001D4607F10C040FCC0FC594E80F0085E8B6
:1058E0000F0023E03B681D4607F14C040FCC0FC5A9
:1058F00094E80F0085E80F0018E03A6F7B6F9A423A
:105900000ADC3B681D4607F12C040FCC0FC594E858
:105910000F0085E80F0009E03B681D4607F14C04C5
:105920000FCC0FC594E80F0085E80F007837BD460F
:10593000B0BD00BF80778E0680B584B000AF03464F
:105940000A46FB711346BB71BB79184600F060F93B
:105950000346FB73BB79184600F07AF9B860FB7B0D
:10596000184600F091F90246BB680133B2FBF3F32D
:1059700018461037BD4680BD80B485B000AF0346E1
:10598000FB801C23FB730023BB6024E01D49BA6825
:1059900013465B0013445B000B441B88FA889A4251
:1059A00016D31849BA6813465B0013445B000B44D6
:1059B00002331B88FA889A420AD81249BA681346F9
:1059C0005B0013445B000B4404331B78FB7302E061
:1059D000BB680133BB60FB7B1C2B0BD10949BA6848
:1059E00013465B0013445B000B4404331B78FA7BC3
:1059F0009A42CBD1FB7B18461437BD465DF8047B39
:105A0000704700BF50D0001A80B483B000AF4FF48D
:105A10007A733B60154B9B697B607B6823F00203C4
:105A20007B60124B9B697A689A4202D00F4A7B686E
:105A300093617B6823F001037B600D4B1B680D4A6B
:105A4000934203D97B6843F004037B60074A7B6879
:105A5000936100BF3B685A1E3A60002BFAD100BF29
:105A60000C37BD465DF8047B704700BF0000054061
:105A7000DCCF001AFF2C310180B582B000AF786016
:105A800039603B681B79184600F0FEF802463B6817
:105A90005A617B682B4A934207D87B682A4A934213
:105AA00003D93B685B69002B02D14FF0FF3344E020
:105AB0003B6880221A603B6800229A603B680022A3
:105AC000DA603B685B697A68B2FBF3F31A463B68BD
:105AD0001A617B681D4A934209D93B681B691A46C3
